{
  "address": "0x0D1Be9929D909C80fB2036B7F15b8396AF0d7D03",
  "abi": [
    {
      "inputs": [],
      "name": "ETH",
      "outputs": [
        {
          "internalType": "uint256",
          "name": "",
          "type": "uint256"
        }
      ],
      "stateMutability": "view",
      "type": "function"
    },
    {
      "inputs": [],
      "name": "USD",
      "outputs": [
        {
          "internalType": "uint256",
          "name": "",
          "type": "uint256"
        }
      ],
      "stateMutability": "view",
      "type": "function"
    }
  ],
  "transactionHash": "0xdec68b48bc63534c22c4757361456d480b116f12f3f6e6e4304aa5f405dcd9d6",
  "args": [],
  "numDeployments": 1,
  "solcInputHash": "b85e5d5414aa90db39522aae34ca01d2",
  "bytecode": "0x6098610038600b82828239805160001a607314602b57634e487b7160e01b600052600060045260246000fd5b30600052607381538281f3fe7300000000000000000000000000000000000000003014608060405260043610603d5760003560e01c80631bf6c21b1460425780638322fff214605b575b600080fd5b6049600281565b60405190815260200160405180910390f35b604960018156fea2646970667358221220ec3002c1b9acf12ede0d29f412eeaf767f0a19c8815a462b66722df6bef6d6b364736f6c63430008060033",
  "devdoc": {
    "kind": "dev",
    "methods": {},
    "version": 1
  },
  "userdoc": {
    "kind": "user",
    "methods": {},
    "version": 1
  },
  "storageLayout": {
    "storage": [],
    "types": null
  }
}