{
  "address": "0xF5F21EBfe5b2e93fb6724Fd71e815814ef018D92",
  "abi": [
    {
      "anonymous": false,
      "inputs": [
        {
          "indexed": true,
          "internalType": "contract ISNOWSplitsPayer",
          "name": "splitsPayer",
          "type": "address"
        },
        {
          "indexed": false,
          "internalType": "uint256",
          "name": "defaultSplitsProjectId",
          "type": "uint256"
        },
        {
          "indexed": false,
          "internalType": "uint256",
          "name": "defaultSplitsDomain",
          "type": "uint256"
        },
        {
          "indexed": false,
          "internalType": "uint256",
          "name": "defaultSplitsGroup",
          "type": "uint256"
        },
        {
          "indexed": false,
          "internalType": "contract ISNOWSplitsStore",
          "name": "splitsStore",
          "type": "address"
        },
        {
          "indexed": false,
          "internalType": "uint256",
          "name": "defaultProjectId",
          "type": "uint256"
        },
        {
          "indexed": false,
          "internalType": "address",
          "name": "defaultBeneficiary",
          "type": "address"
        },
        {
          "indexed": false,
          "internalType": "bool",
          "name": "defaultPreferClaimedTokens",
          "type": "bool"
        },
        {
          "indexed": false,
          "internalType": "string",
          "name": "defaultMemo",
          "type": "string"
        },
        {
          "indexed": false,
          "internalType": "bytes",
          "name": "defaultMetadata",
          "type": "bytes"
        },
        {
          "indexed": false,
          "internalType": "bool",
          "name": "preferAddToBalance",
          "type": "bool"
        },
        {
          "indexed": false,
          "internalType": "address",
          "name": "owner",
          "type": "address"
        },
        {
          "indexed": false,
          "internalType": "address",
          "name": "caller",
          "type": "address"
        }
      ],
      "name": "DeploySplitsPayer",
      "type": "event"
    },
    {
      "inputs": [
        {
          "internalType": "uint256",
          "name": "_defaultSplitsProjectId",
          "type": "uint256"
        },
        {
          "internalType": "uint256",
          "name": "_defaultSplitsDomain",
          "type": "uint256"
        },
        {
          "internalType": "uint256",
          "name": "_defaultSplitsGroup",
          "type": "uint256"
        },
        {
          "internalType": "contract ISNOWSplitsStore",
          "name": "_splitsStore",
          "type": "address"
        },
        {
          "internalType": "uint256",
          "name": "_defaultProjectId",
          "type": "uint256"
        },
        {
          "internalType": "address payable",
          "name": "_defaultBeneficiary",
          "type": "address"
        },
        {
          "internalType": "bool",
          "name": "_defaultPreferClaimedTokens",
          "type": "bool"
        },
        {
          "internalType": "string",
          "name": "_defaultMemo",
          "type": "string"
        },
        {
          "internalType": "bytes",
          "name": "_defaultMetadata",
          "type": "bytes"
        },
        {
          "internalType": "bool",
          "name": "_defaultPreferAddToBalance",
          "type": "bool"
        },
        {
          "internalType": "address",
          "name": "_owner",
          "type": "address"
        }
      ],
      "name": "deploySplitsPayer",
      "outputs": [
        {
          "internalType": "contract ISNOWSplitsPayer",
          "name": "splitsPayer",
          "type": "address"
        }
      ],
      "stateMutability": "nonpayable",
      "type": "function"
    }
  ],
  "transactionHash": "0x4e4c652b6d7d0023595b834993562865b57a095e1f897068822d31a43cc980c6",
  "args": [],
  "numDeployments": 4,
  "solcInputHash": "a1194acbacea6fde2d0fc514ea2f8cd9",
  "bytecode": "0x608060405234801561001057600080fd5b50613a9f806100206000396000f3fe60806040523480156200001157600080fd5b50600436106200002e5760003560e01c80632e113c8b1462000033575b600080fd5b6200004a6200004436600462000235565b62000073565b60405173ffffffffffffffffffffffffffffffffffffffff909116815260200160405180910390f35b60008b8b8b8b8b8b8b8b8b8b8b6040516200008e9062000139565b620000a49b9a9998979695949392919062000399565b604051809103906000f080158015620000c1573d6000803e3d6000fd5b5090508073ffffffffffffffffffffffffffffffffffffffff167f9d8d9335be0008f50a6547966dd6a854fd9df1f0be7838b8a445b562513627448d8d8d8d8d8d8d8d8d8d8d33604051620001229c9b9a9998979695949392919062000431565b60405180910390a29b9a5050505050505050505050565b613538806200053283390190565b803573ffffffffffffffffffffffffffffffffffffffff811681146200016c57600080fd5b919050565b803580151581146200016c57600080fd5b600082601f8301126200019457600080fd5b813567ffffffffffffffff80821115620001b257620001b262000502565b604051601f83017fffffffffffffffffffffffffffffffffffffffffffffffffffffffffffffffe0908116603f01168101908282118183101715620001fb57620001fb62000502565b816040528381528660208588010111156200021557600080fd5b836020870160208301376000602085830101528094505050505092915050565b60008060008060008060008060008060006101608c8e0312156200025857600080fd5b8b359a5060208c0135995060408c013598506200027860608d0162000147565b975060808c013596506200028f60a08d0162000147565b95506200029f60c08d0162000171565b945067ffffffffffffffff8060e08e01351115620002bc57600080fd5b620002ce8e60e08f01358f0162000182565b9450806101008e01351115620002e357600080fd5b50620002f78d6101008e01358e0162000182565b9250620003086101208d0162000171565b9150620003196101408d0162000147565b90509295989b509295989b9093969950565b6000815180845260005b81811015620003535760208185018101518683018201520162000335565b8181111562000366576000602083870101525b50601f017fffffffffffffffffffffffffffffffffffffffffffffffffffffffffffffffe0169290920160200192915050565b60006101608d83528c60208401528b604084015273ffffffffffffffffffffffffffffffffffffffff808c1660608501528a6080850152808a1660a085015288151560c08501528160e0850152620003f4828501896200032b565b91508382036101008501526200040b82886200032b565b925085151561012085015280851661014085015250509c9b505050505050505050505050565b60006101808e83528d60208401528c604084015273ffffffffffffffffffffffffffffffffffffffff808d1660608501528b6080850152808b1660a08501525088151560c08401528060e08401526200048d818401896200032b565b9050828103610100840152620004a481886200032b565b915050841515610120830152620004d461014083018573ffffffffffffffffffffffffffffffffffffffff169052565b73ffffffffffffffffffffffffffffffffffffffff83166101608301529d9c50505050505050505050505050565b7f4e487b7100000000000000000000000000000000000000000000000000000000600052604160045260246000fdfe60c06040523480156200001157600080fd5b506040516200353838038062003538833981016040819052620000349162000372565b8686868686868d6001600160a01b031663c41c2f246040518163ffffffff1660e01b815260040160206040518083038186803b1580156200007457600080fd5b505afa15801562000089573d6000803e3d6000fd5b505050506040513d601f19601f82011682018060405250810190620000af91906200034b565b87620000bb336200017b565b600188905560028054871515600160a01b026001600160a81b03199091166001600160a01b038a16171790558451620000fc906003906020880190620001cb565b50835162000112906004906020870190620001cb565b506005805460ff1916841515179055606082901b6001600160601b0319166080526200013e816200017b565b5050600160065550505060079d909d555050506008989098555050506009939093555060601b6001600160601b03191660a05250620004d6915050565b600080546001600160a01b038381166001600160a01b0319831681178455604051919092169283917f8be0079c531659141344cd1fd0a4f28419497f9722a3daafe3b4186f6b6457e09190a35050565b828054620001d9906200046a565b90600052602060002090601f016020900481019282620001fd576000855562000248565b82601f106200021857805160ff191683800117855562000248565b8280016001018555821562000248579182015b82811115620002485782518255916020019190600101906200022b565b50620002569291506200025a565b5090565b5b808211156200025657600081556001016200025b565b80516200027e81620004bd565b919050565b805180151581146200027e57600080fd5b600082601f830112620002a657600080fd5b81516001600160401b0380821115620002c357620002c3620004a7565b604051601f8301601f19908116603f01168101908282118183101715620002ee57620002ee620004a7565b816040528381526020925086838588010111156200030b57600080fd5b600091505b838210156200032f578582018301518183018401529082019062000310565b83821115620003415760008385830101525b9695505050505050565b6000602082840312156200035e57600080fd5b81516200036b81620004bd565b9392505050565b60008060008060008060008060008060006101608c8e0312156200039557600080fd5b8b519a5060208c0151995060408c01519850620003b560608d0162000271565b975060808c01519650620003cc60a08d0162000271565b9550620003dc60c08d0162000283565b60e08d01519095506001600160401b03811115620003f957600080fd5b620004078e828f0162000294565b6101008e015190955090506001600160401b038111156200042757600080fd5b620004358e828f0162000294565b935050620004476101208d0162000283565b9150620004586101408d0162000271565b90509295989b509295989b9093969950565b600181811c908216806200047f57607f821691505b60208210811415620004a157634e487b7160e01b600052602260045260246000fd5b50919050565b634e487b7160e01b600052604160045260246000fd5b6001600160a01b0381168114620004d357600080fd5b50565b60805160601c60a05160601c613021620005176000396000818161056b01526107b4015260008181610726015281816108e20152610bed01526130216000f3fe6080604052600436106101485760003560e01c8063715018a6116100c05780639ef3ae9411610074578063b96053df11610059578063b96053df146106ff578063c41c2f2414610714578063f2fde38b1461074857600080fd5b80639ef3ae94146106ad578063a4919eb1146106cd57600080fd5b80638293fee6116100a55780638293fee6146106625780638da5cb5b1461067557806393b7f1541461069357600080fd5b8063715018a61461062b5780637e6465491461064057600080fd5b80633c212b1c11610117578063421a2fb5116100fc578063421a2fb5146105df5780635380cf8f146105f557806354ab58af1461060b57600080fd5b80633c212b1c146105a55780633ce9830b146105c957600080fd5b806301ffc9a7146104ef57806309a6b7e5146105245780630e45f78e146105395780632bdfe0041461055957600080fd5b366104ea57600260065414156101bf576040517f08c379a000000000000000000000000000000000000000000000000000000000815260206004820152601f60248201527f5265656e7472616e637947756172643a207265656e7472616e742063616c6c0060448201526064015b60405180910390fd5b60026006819055600754600854600954925460009361020793929161eeee9047906012906001600160a01b03166101f65733610768565b6002546001600160a01b0316610768565b90508061021457506104e3565b600154156104b45760055460ff16156103535761034e60015461eeee8360126003805461024090612e7f565b80601f016020809104026020016040519081016040528092919081815260200182805461026c90612e7f565b80156102b95780601f1061028e576101008083540402835291602001916102b9565b820191906000526020600020905b81548152906001019060200180831161029c57829003601f168201915b5050505050600480546102cb90612e7f565b80601f01602080910402602001604051908101604052809291908181526020018280546102f790612e7f565b80156103445780601f1061031957610100808354040283529160200191610344565b820191906000526020600020905b81548152906001019060200180831161032757829003601f168201915b50505050506108a0565b6104e1565b60015460025461034e919061eeee9084906012906001600160a01b031661037a5733610387565b6002546001600160a01b03165b6000600260149054906101000a900460ff16600380546103a690612e7f565b80601f01602080910402602001604051908101604052809291908181526020018280546103d290612e7f565b801561041f5780601f106103f45761010080835404028352916020019161041f565b820191906000526020600020905b81548152906001019060200180831161040257829003601f168201915b50505050506004805461043190612e7f565b80601f016020809104026020016040519081016040528092919081815260200182805461045d90612e7f565b80156104aa5780601f1061047f576101008083540402835291602001916104aa565b820191906000526020600020905b81548152906001019060200180831161048d57829003601f168201915b5050505050610bab565b6002546104e1906001600160a01b03166104ce57336104db565b6002546001600160a01b03165b82610f02565b505b6001600655005b600080fd5b3480156104fb57600080fd5b5061050f61050a3660046126cd565b611054565b60405190151581526020015b60405180910390f35b6105376105323660046128da565b6110b0565b005b34801561054557600080fd5b50610537610554366004612745565b611445565b34801561056557600080fd5b5061058d7f000000000000000000000000000000000000000000000000000000000000000081565b6040516001600160a01b03909116815260200161051b565b3480156105b157600080fd5b506105bb60095481565b60405190815260200161051b565b3480156105d557600080fd5b506105bb60015481565b3480156105eb57600080fd5b506105bb60075481565b34801561060157600080fd5b506105bb60085481565b34801561061757600080fd5b5060025461058d906001600160a01b031681565b34801561063757600080fd5b506105376116d0565b34801561064c57600080fd5b50610655611750565b60405161051b9190612c6f565b6105376106703660046127fe565b6117de565b34801561068157600080fd5b506000546001600160a01b031661058d565b34801561069f57600080fd5b5060055461050f9060ff1681565b3480156106b957600080fd5b506105376106c8366004612979565b611b96565b3480156106d957600080fd5b5060025461050f9074010000000000000000000000000000000000000000900460ff1681565b34801561070b57600080fd5b50610655611c75565b34801561072057600080fd5b5061058d7f000000000000000000000000000000000000000000000000000000000000000081565b34801561075457600080fd5b5061053761076336600461256d565b611c82565b6040517f69e11cc5000000000000000000000000000000000000000000000000000000008152600481018890526024810187905260448101869052600090610859906001600160a01b037f000000000000000000000000000000000000000000000000000000000000000016906369e11cc59060640160006040518083038186803b1580156107f657600080fd5b505afa15801561080a573d6000803e3d6000fd5b505050506040513d6000823e601f3d9081017fffffffffffffffffffffffffffffffffffffffffffffffffffffffffffffffe0168201604052610850919081019061258a565b86868686611d98565b604051338152909150869088908a907f2522c1d6a5eb94bdf38d0007aadcdd12c34a8b834b915ab71117e8c0a7e5df809060200160405180910390a4979650505050505050565b6040517f86202650000000000000000000000000000000000000000000000000000000008152600481018790526001600160a01b0386811660248301526000917f00000000000000000000000000000000000000000000000000000000000000009091169063862026509060440160206040518083038186803b15801561092657600080fd5b505afa15801561093a573d6000803e3d6000fd5b505050506040513d601f19601f8201168201806040525081019061095e919061270f565b90506001600160a01b0381166109a0576040517ffba10dd600000000000000000000000000000000000000000000000000000000815260040160405180910390fd5b6040517fb7bad1b10000000000000000000000000000000000000000000000000000000081526001600160a01b03878116600483015285919083169063b7bad1b19060240160206040518083038186803b1580156109fd57600080fd5b505afa158015610a11573d6000803e3d6000fd5b505050506040513d601f19601f82011682018060405250810190610a35919061272c565b14610a6c576040517fb972592400000000000000000000000000000000000000000000000000000000815260040160405180910390fd5b6001600160a01b03861661eeee14610b1b576040517f095ea7b30000000000000000000000000000000000000000000000000000000081526001600160a01b0382811660048301526024820187905287169063095ea7b390604401602060405180830381600087803b158015610ae157600080fd5b505af1158015610af5573d6000803e3d6000fd5b505050506040513d601f19601f82011682018060405250810190610b1991906126b0565b505b60006001600160a01b03871661eeee14610b36576000610b38565b855b9050816001600160a01b0316630cf8e858828a898b89896040518763ffffffff1660e01b8152600401610b6f959493929190612d74565b6000604051808303818588803b158015610b8857600080fd5b505af1158015610b9c573d6000803e3d6000fd5b50505050505050505050505050565b6040517f86202650000000000000000000000000000000000000000000000000000000008152600481018a90526001600160a01b0389811660248301526000917f00000000000000000000000000000000000000000000000000000000000000009091169063862026509060440160206040518083038186803b158015610c3157600080fd5b505afa158015610c45573d6000803e3d6000fd5b505050506040513d601f19601f82011682018060405250810190610c69919061270f565b90506001600160a01b038116610cab576040517ffba10dd600000000000000000000000000000000000000000000000000000000815260040160405180910390fd5b6040517fb7bad1b10000000000000000000000000000000000000000000000000000000081526001600160a01b038a8116600483015288919083169063b7bad1b19060240160206040518083038186803b158015610d0857600080fd5b505afa158015610d1c573d6000803e3d6000fd5b505050506040513d601f19601f82011682018060405250810190610d40919061272c565b14610d77576040517fb972592400000000000000000000000000000000000000000000000000000000815260040160405180910390fd5b6001600160a01b03891661eeee14610e26576040517f095ea7b30000000000000000000000000000000000000000000000000000000081526001600160a01b038281166004830152602482018a90528a169063095ea7b390604401602060405180830381600087803b158015610dec57600080fd5b505af1158015610e00573d6000803e3d6000fd5b505050506040513d601f19601f82011682018060405250810190610e2491906126b0565b505b60006001600160a01b038a1661eeee14610e41576000610e43565b885b9050816001600160a01b0316631ebc263f828d8c8e60006001600160a01b03168d6001600160a01b03161415610e795733610e7b565b8c5b8c8c8c8c6040518a63ffffffff1660e01b8152600401610ea2989796959493929190612d0a565b6020604051808303818588803b158015610ebb57600080fd5b505af1158015610ecf573d6000803e3d6000fd5b50505050506040513d601f19601f82011682018060405250810190610ef4919061272c565b505050505050505050505050565b80471015610f6c576040517f08c379a000000000000000000000000000000000000000000000000000000000815260206004820152601d60248201527f416464726573733a20696e73756666696369656e742062616c616e636500000060448201526064016101b6565b6000826001600160a01b03168260405160006040518083038185875af1925050503d8060008114610fb9576040519150601f19603f3d011682016040523d82523d6000602084013e610fbe565b606091505b505090508061104f576040517f08c379a000000000000000000000000000000000000000000000000000000000815260206004820152603a60248201527f416464726573733a20756e61626c6520746f2073656e642076616c75652c207260448201527f6563697069656e74206d6179206861766520726576657274656400000000000060648201526084016101b6565b505050565b60007fffffffff0000000000000000000000000000000000000000000000000000000082167f989785b60000000000000000000000000000000000000000000000000000000014806110aa57506110aa826121db565b92915050565b6002600654141561111d576040517f08c379a000000000000000000000000000000000000000000000000000000000815260206004820152601f60248201527f5265656e7472616e637947756172643a207265656e7472616e742063616c6c0060448201526064016101b6565b60026006556001600160a01b03871661eeee1461121157341561116c576040517fbcfd35be00000000000000000000000000000000000000000000000000000000815260040160405180910390fd5b6040517f23b872dd000000000000000000000000000000000000000000000000000000008152336004820152306024820152604481018790526001600160a01b038816906323b872dd90606401602060405180830381600087803b1580156111d357600080fd5b505af11580156111e7573d6000803e3d6000fd5b505050506040513d601f19601f8201168201806040525081019061120b91906126b0565b50611219565b349550601294505b60075460085460095460025460009361124993909290918c908c908c906001600160a01b03166101f65733610768565b905080156113c75788156112d3576112ce8989838989898080601f01602080910402602001604051908101604052809392919081815260200183838082843760009201919091525050604080516020601f8d018190048102820181019092528b815292508b91508a90819084018382808284376000920191909152506108a092505050565b6113c7565b6001600160a01b03881661eeee1415611300576002546112ce906001600160a01b03166104ce57336104db565b6002546001600160a01b03808a169163a9059cbb9116611320573361132d565b6002546001600160a01b03165b6040517fffffffff0000000000000000000000000000000000000000000000000000000060e084901b1681526001600160a01b03909116600482015260248101849052604401602060405180830381600087803b15801561138d57600080fd5b505af11580156113a1573d6000803e3d6000fd5b505050506040513d601f19601f820116820180604052508101906113c591906126b0565b505b60025489907f5f17f788c7f8d3fd7332fb1e6c42a67accbf9bb129ac8e4389fe693b506369f1906001600160a01b0316611401573361140e565b6002546001600160a01b03165b8a8a8a868b8b8b8b3360405161142d9a99989796959493929190612b30565b60405180910390a25050600160065550505050505050565b6000546001600160a01b031633146114b9576040517f08c379a000000000000000000000000000000000000000000000000000000000815260206004820181905260248201527f4f776e61626c653a2063616c6c6572206973206e6f7420746865206f776e657260448201526064016101b6565b60015486146114c85760018690555b6002546001600160a01b0386811691161461151157600280547fffffffffffffffffffffffff0000000000000000000000000000000000000000166001600160a01b0387161790555b600260149054906101000a900460ff1615158415151461156f57600280547fffffffffffffffffffffff00ffffffffffffffffffffffffffffffffffffffff1674010000000000000000000000000000000000000000861515021790555b60036040516020016115819190612b24565b60405160208183030381529060405280519060200120836040516020016115a89190612b08565b60405160208183030381529060405280519060200120146115d85782516115d69060039060208601906123e5565b505b60046040516020016115ea9190612b24565b60405160208183030381529060405280519060200120826040516020016116119190612b08565b604051602081830303815290604052805190602001201461164157815161163f9060049060208501906123e5565b505b60055460ff1615158115151461167e57600580547fffffffffffffffffffffffffffffffffffffffffffffffffffffffffffffff00168215151790555b846001600160a01b0316867f36b1c5cef608e320317b9ee5155756634c65fe7055b424ce57e2f6c59eec794786868686336040516116c0959493929190612c1f565b60405180910390a3505050505050565b6000546001600160a01b03163314611744576040517f08c379a000000000000000000000000000000000000000000000000000000000815260206004820181905260248201527f4f776e61626c653a2063616c6c6572206973206e6f7420746865206f776e657260448201526064016101b6565b61174e6000612272565b565b6004805461175d90612e7f565b80601f016020809104026020016040519081016040528092919081815260200182805461178990612e7f565b80156117d65780601f106117ab576101008083540402835291602001916117d6565b820191906000526020600020905b8154815290600101906020018083116117b957829003601f168201915b505050505081565b6002600654141561184b576040517f08c379a000000000000000000000000000000000000000000000000000000000815260206004820152601f60248201527f5265656e7472616e637947756172643a207265656e7472616e742063616c6c0060448201526064016101b6565b60026006556001600160a01b038a1661eeee1461193f57341561189a576040517fbcfd35be00000000000000000000000000000000000000000000000000000000815260040160405180910390fd5b6040517f23b872dd000000000000000000000000000000000000000000000000000000008152336004820152306024820152604481018a90526001600160a01b038b16906323b872dd90606401602060405180830381600087803b15801561190157600080fd5b505af1158015611915573d6000803e3d6000fd5b505050506040513d601f19601f8201168201806040525081019061193991906126b0565b50611947565b349850601297505b60075460085460095460025460009361197793909290918f908f908f906001600160a01b03166101f65733610768565b90508015611b15578b15611a2a57611a258c8c838c6001600160a01b038d166119a057336119a2565b8c5b8c8c8c8c8080601f016020809104026020016040519081016040528093929190818152602001838380828437600081840152601f19601f820116905080830192505050505050508b8b8080601f016020809104026020016040519081016040528093929190818152602001838380828437600092019190915250610bab92505050565b611b15565b6001600160a01b038b1661eeee1415611a5b57611a256001600160a01b038916611a5457336104db565b8882610f02565b6001600160a01b03808c169063a9059cbb908a16611a795733611a7b565b895b6040517fffffffff0000000000000000000000000000000000000000000000000000000060e084901b1681526001600160a01b03909116600482015260248101849052604401602060405180830381600087803b158015611adb57600080fd5b505af1158015611aef573d6000803e3d6000fd5b505050506040513d601f19601f82011682018060405250810190611b1391906126b0565b505b8b7f72877920bfc936c0f18c54961abe3105d7d2990103eaa013cd8420fecacb0b606001600160a01b038a16611b4b5733611b58565b6002546001600160a01b03165b8d8d8d868d8d8d8d8d8d33604051611b7b9c9b9a99989796959493929190612b9f565b60405180910390a25050600160065550505050505050505050565b6000546001600160a01b03163314611c0a576040517f08c379a000000000000000000000000000000000000000000000000000000000815260206004820181905260248201527f4f776e61626c653a2063616c6c6572206973206e6f7420746865206f776e657260448201526064016101b6565b6007548314611c195760078390555b6008548214611c285760088290555b6009548114611c375760098190555b6040513381528190839085907f35d3ba05d1542dfd932c06cd4a721d4c7df968e4315425b90acca0cd7e6ec3b49060200160405180910390a4505050565b6003805461175d90612e7f565b6000546001600160a01b03163314611cf6576040517f08c379a000000000000000000000000000000000000000000000000000000000815260206004820181905260248201527f4f776e61626c653a2063616c6c6572206973206e6f7420746865206f776e657260448201526064016101b6565b6001600160a01b038116611d8c576040517f08c379a000000000000000000000000000000000000000000000000000000000815260206004820152602660248201527f4f776e61626c653a206e6577206f776e657220697320746865207a65726f206160448201527f646472657373000000000000000000000000000000000000000000000000000060648201526084016101b6565b611d9581612272565b50565b8260005b86518110156121d1576000878281518110611db957611db9612f6a565b602002602001015190506000611dd8878360400151633b9aca006122da565b9050801561217f5760c08201516001600160a01b031615611ffb576040805160c0810182526001600160a01b038a168082526020820184905291810188905260015460608201526000608082015260a081018490529061eeee14611ed95760c08301516040517f095ea7b30000000000000000000000000000000000000000000000000000000081526001600160a01b03918216600482015260248101849052908a169063095ea7b390604401602060405180830381600087803b158015611e9f57600080fd5b505af1158015611eb3573d6000803e3d6000fd5b505050506040513d601f19601f82011682018060405250810190611ed791906126b0565b505b60006001600160a01b038a1661eeee14611ef4576000611ef6565b825b60c080860151604080517f9d740bfa00000000000000000000000000000000000000000000000000000000815286516001600160a01b03908116600483015260208089015160248401528389015160448401526060808a015160648501526080808b0151608486015260a0808c01518051151560a488015293840151151560c48701529583015160e486015290820151610104850152810151821661012484015292830151610144830152919093015181166101648401529293509190911690639d740bfa908390610184016000604051808303818588803b158015611fdb57600080fd5b505af1158015611fef573d6000803e3d6000fd5b50505050505050612172565b6060820151156120765781602001511561202c5761202782606001518983896003805461024090612e7f565b612172565b612027826060015189838960006001600160a01b031687608001516001600160a01b0316141561205c5789612062565b86608001515b60008860000151600380546103a690612e7f565b6001600160a01b03881661eeee14156120b0576080820151612027906001600160a01b03166120a557856104db565b826080015182610f02565b60808201516001600160a01b03808a169163a9059cbb91166120d257866120d8565b83608001515b6040517fffffffff0000000000000000000000000000000000000000000000000000000060e084901b1681526001600160a01b03909116600482015260248101849052604401602060405180830381600087803b15801561213857600080fd5b505af115801561214c573d6000803e3d6000fd5b505050506040513d601f19601f8201168201806040525081019061217091906126b0565b505b61217c8185612e38565b93505b7ff44ffe151def7bd57d653ffdd625b5cfff3e6992ad5b8eb1f021cdaca6599544828287336040516121b49493929190612c82565b60405180910390a1505080806121c990612ed3565b915050611d9c565b5095945050505050565b60007fffffffff0000000000000000000000000000000000000000000000000000000082167fd90c137e0000000000000000000000000000000000000000000000000000000014806110aa57507f01ffc9a7000000000000000000000000000000000000000000000000000000007fffffffff000000000000000000000000000000000000000000000000000000008316146110aa565b600080546001600160a01b038381167fffffffffffffffffffffffff0000000000000000000000000000000000000000831681178455604051919092169283917f8be0079c531659141344cd1fd0a4f28419497f9722a3daafe3b4186f6b6457e09190a35050565b600080807fffffffffffffffffffffffffffffffffffffffffffffffffffffffffffffffff85870985870292508281108382030391505080600014156123335783828161232957612329612f3b565b04925050506123de565b838110612376576040517f773cc18c00000000000000000000000000000000000000000000000000000000815260048101829052602481018590526044016101b6565b600084868809851960019081018716968790049682860381900495909211909303600082900391909104909201919091029190911760038402600290811880860282030280860282030280860282030280860282030280860282030280860290910302029150505b9392505050565b8280546123f190612e7f565b90600052602060002090601f0160209004810192826124135760008555612459565b82601f1061242c57805160ff1916838001178555612459565b82800160010185558215612459579182015b8281111561245957825182559160200191906001019061243e565b50612465929150612469565b5090565b5b80821115612465576000815560010161246a565b600067ffffffffffffffff83111561249857612498612f99565b6124c960207fffffffffffffffffffffffffffffffffffffffffffffffffffffffffffffffe0601f86011601612de9565b90508281528383830111156124dd57600080fd5b828260208301376000602084830101529392505050565b80356124ff81612fdd565b919050565b60008083601f84011261251657600080fd5b50813567ffffffffffffffff81111561252e57600080fd5b60208301915083602082850101111561254657600080fd5b9250929050565b600082601f83011261255e57600080fd5b6123de8383356020850161247e565b60006020828403121561257f57600080fd5b81356123de81612fc8565b6000602080838503121561259d57600080fd5b825167ffffffffffffffff808211156125b557600080fd5b818501915085601f8301126125c957600080fd5b8151818111156125db576125db612f99565b6125e9848260051b01612de9565b818152848101925083850160e0808402860187018a101561260957600080fd5b60009550855b848110156126a15781838c031215612625578687fd5b61262d612dc0565b835161263881612fdd565b81528389015161264781612fdd565b818a0152604084810151908201526060808501519082015260808085015161266e81612fc8565b9082015260a0848101519082015260c08085015161268b81612fc8565b908201528652948701949181019160010161260f565b50919998505050505050505050565b6000602082840312156126c257600080fd5b81516123de81612fdd565b6000602082840312156126df57600080fd5b81357fffffffff00000000000000000000000000000000000000000000000000000000811681146123de57600080fd5b60006020828403121561272157600080fd5b81516123de81612fc8565b60006020828403121561273e57600080fd5b5051919050565b60008060008060008060c0878903121561275e57600080fd5b86359550602087013561277081612fc8565b9450604087013561278081612fdd565b9350606087013567ffffffffffffffff8082111561279d57600080fd5b818901915089601f8301126127b157600080fd5b6127c08a83356020850161247e565b945060808901359150808211156127d657600080fd5b506127e389828a0161254d565b9250506127f260a088016124f4565b90509295509295509295565b60008060008060008060008060008060006101208c8e03121561282057600080fd5b8b359a5061283160208d0135612fc8565b60208c0135995060408c0135985060608c0135975061285360808d0135612fc8565b60808c0135965060a08c0135955061286d60c08d016124f4565b945067ffffffffffffffff8060e08e0135111561288957600080fd5b6128998e60e08f01358f01612504565b90955093506101008d01358110156128b057600080fd5b506128c28d6101008e01358e01612504565b81935080925050509295989b509295989b9093969950565b60008060008060008060008060c0898b0312156128f657600080fd5b88359750602089013561290881612fc8565b96506040890135955060608901359450608089013567ffffffffffffffff8082111561293357600080fd5b61293f8c838d01612504565b909650945060a08b013591508082111561295857600080fd5b506129658b828c01612504565b999c989b5096995094979396929594505050565b60008060006060848603121561298e57600080fd5b505081359360208301359350604090920135919050565b8183528181602085013750600060208284010152600060207fffffffffffffffffffffffffffffffffffffffffffffffffffffffffffffffe0601f840116840101905092915050565b60008151808452612a06816020860160208601612e4f565b601f017fffffffffffffffffffffffffffffffffffffffffffffffffffffffffffffffe0169290920160200192915050565b8054600090600181811c9080831680612a5257607f831692505b6020808410821415612a8d577f4e487b7100000000000000000000000000000000000000000000000000000000600052602260045260246000fd5b818015612aa15760018114612ad057612afc565b7fffffffffffffffffffffffffffffffffffffffffffffffffffffffffffffff00861689528489019650612afc565b876000528160002060005b86811015612af45781548b820152908501908301612adb565b505084890196505b50505050505092915050565b60008251612b1a818460208701612e4f565b9190910192915050565b60006123de8284612a38565b60006101006001600160a01b03808e168452808d1660208501528b60408501528a60608501528960808501528160a0850152612b6f828501898b6129a5565b915083820360c0850152612b848287896129a5565b925080851660e085015250509b9a5050505050505050505050565b60006001600160a01b03808f168352808e1660208401528c60408401528b60608401528a60808401528960a084015288151560c084015261014060e0840152612bed6101408401888a6129a5565b838103610100850152612c018187896129a5565b925050808416610120840152509d9c50505050505050505050505050565b851515815260a060208201526000612c3a60a08301876129ee565b8281036040840152612c4c81876129ee565b941515606084015250506001600160a01b03919091166080909101529392505050565b6020815260006123de60208301846129ee565b6101408101612ce38287805115158252602081015115156020830152604081015160408301526060810151606083015260808101516001600160a01b03808216608085015260a083015160a08501528060c08401511660c085015250505050565b60e08201949094526001600160a01b03928316610100820152911661012090910152919050565b60006101008a83528960208401526001600160a01b03808a16604085015280891660608501525086608084015285151560a08401528060c0840152612d51818401866129ee565b905082810360e0840152612d6581856129ee565b9b9a5050505050505050505050565b8581528460208201526001600160a01b038416604082015260a060608201526000612da260a08301856129ee565b8281036080840152612db481856129ee565b98975050505050505050565b60405160e0810167ffffffffffffffff81118282101715612de357612de3612f99565b60405290565b604051601f82017fffffffffffffffffffffffffffffffffffffffffffffffffffffffffffffffe016810167ffffffffffffffff81118282101715612e3057612e30612f99565b604052919050565b600082821015612e4a57612e4a612f0c565b500390565b60005b83811015612e6a578181015183820152602001612e52565b83811115612e79576000848401525b50505050565b600181811c90821680612e9357607f821691505b60208210811415612ecd577f4e487b7100000000000000000000000000000000000000000000000000000000600052602260045260246000fd5b50919050565b60007fffffffffffffffffffffffffffffffffffffffffffffffffffffffffffffffff821415612f0557612f05612f0c565b5060010190565b7f4e487b7100000000000000000000000000000000000000000000000000000000600052601160045260246000fd5b7f4e487b7100000000000000000000000000000000000000000000000000000000600052601260045260246000fd5b7f4e487b7100000000000000000000000000000000000000000000000000000000600052603260045260246000fd5b7f4e487b7100000000000000000000000000000000000000000000000000000000600052604160045260246000fd5b6001600160a01b0381168114611d9557600080fd5b8015158114611d9557600080fdfea264697066735822122062e9644ffd4b6b7c3377c2d44b6c330117cbdb4c71e9b32d1440aa90125f322464736f6c63430008060033a2646970667358221220ff8bc7160585fc6ec12285c783e6df4df502b61c0d4757c59334dbd0be571bb564736f6c63430008060033",
  "devdoc": {
    "details": "Adheres to - ISNOWETHERC20SplitsPayerDeployer:  General interface for the methods in this contract that interact with the blockchain's state according to the protocol's rules.",
    "kind": "dev",
    "methods": {
      "deploySplitsPayer(uint256,uint256,uint256,address,uint256,address,bool,string,bytes,bool,address)": {
        "params": {
          "_defaultBeneficiary": "The address that'll receive the project's tokens when the splits payer receives payments. ",
          "_defaultMemo": "The memo that'll be forwarded with the splits payer's received payments. ",
          "_defaultMetadata": "The metadata that'll be forwarded with the splits payer's received payments. ",
          "_defaultPreferAddToBalance": "A flag indicating if received payments should call the `pay` function or the `addToBalance` function of a project.",
          "_defaultPreferClaimedTokens": "A flag indicating whether issued tokens from the splits payer's received payments should be automatically claimed into the beneficiary's wallet. ",
          "_defaultProjectId": "The ID of the project whose treasury should be forwarded the splits payer contract's received payment leftovers after distributing to the default splits group.",
          "_defaultSplitsDomain": "The splits domain to payout when this contract receives direct payments.",
          "_defaultSplitsGroup": "The splits group to payout when this contract receives direct payments.",
          "_defaultSplitsProjectId": "The ID of project for which the default splits are stored.",
          "_owner": "The address that will own the splits payer.",
          "_splitsStore": "A contract that stores splits for each project."
        },
        "returns": {
          "splitsPayer": "The splits payer contract."
        }
      }
    },
    "version": 1
  },
  "userdoc": {
    "kind": "user",
    "methods": {
      "deploySplitsPayer(uint256,uint256,uint256,address,uint256,address,bool,string,bytes,bool,address)": {
        "notice": " Allows anyone to deploy a new splits payer contract."
      }
    },
    "notice": " Deploys splits payer contracts.",
    "version": 1
  },
  "storageLayout": {
    "storage": [],
    "types": null
  }
}