{
  "address": "0xBF00F01F6934d1c6049F07c47d93C437453A3CBF",
  "abi": [
    {
      "inputs": [],
      "name": "AVAX",
      "outputs": [
        {
          "internalType": "uint256",
          "name": "",
          "type": "uint256"
        }
      ],
      "stateMutability": "view",
      "type": "function"
    },
    {
      "inputs": [],
      "name": "USD",
      "outputs": [
        {
          "internalType": "uint256",
          "name": "",
          "type": "uint256"
        }
      ],
      "stateMutability": "view",
      "type": "function"
    }
  ],
  "transactionHash": "0xdfbcdae942bf0dadccef7d454c180a1d464d533e80b2c290eab061b3824f206c",
  "args": [],
  "numDeployments": 1,
  "solcInputHash": "3ad4aaab0fb7c12f1ea94b1e60dc4900",
  "bytecode": "0x6098610038600b82828239805160001a607314602b57634e487b7160e01b600052600060045260246000fd5b30600052607381538281f3fe7300000000000000000000000000000000000000003014608060405260043610603d5760003560e01c80631bf6c21b146042578063b59f091e14605b575b600080fd5b6049600281565b60405190815260200160405180910390f35b604960018156fea26469706673582212201ef3c145b57b1c65f465d5c72ac45e1089665203a6bfd2e5876893c288a8334964736f6c63430008060033",
  "devdoc": {
    "kind": "dev",
    "methods": {},
    "version": 1
  },
  "userdoc": {
    "kind": "user",
    "methods": {},
    "version": 1
  },
  "storageLayout": {
    "storage": [],
    "types": null
  }
}